S01000006C65645F637562652E73726563E1
S11300000C9434000C943E000C943E000C943E007E
S11300100C943E000C943E000C943E000C943E0064
S11300200C943E000C943E000C943E000C943E0054
S11300300C943E000C943E000C943E000C943E0044
S11300400C943E000C943E000C943E000C943E0034
S11300500C943E000C943E000C943E000C943E0024
S11300600C943E000C943E0011241FBECFEFD8E048
S1130070DEBFCDBF0E9440000C9455000C940000DC
S1130080E1E8F0E0808188608083AFE6B0E08C91A5
S113009082608C93789480E293E0909389008093BB
S11100A08800808182608083FFCFF894FFCFB8
S9030000FC
