:100000000C9434000C943E000C943E000C943E0082
:100010000C943E000C943E000C943E000C943E0068
:100020000C943E000C943E000C943E000C949801FD
:100030000C943E000C943E000C943E000C943E0048
:100040000C943E000C943E000C943E000C943E0038
:100050000C943E000C943E000C943E000C943E0028
:100060000C943E000C943E0011241FBECFEFD8E04C
:10007000DEBFCDBF0E9440000C94A2010C94000092
:10008000E1E8F0E0808188608083AFE6B0E08C91A9
:1000900082608C93789480E293E0909389008093BF
:1000A0008800808182608083409A5D9A2FEF83ED83
:1000B00090E3215080409040E1F700C000005D983F
:1000C0005E9A2FEF83ED90E3215080409040E1F75E
:1000D00000C000005E985F9A2FEF83ED90E32150FF
:1000E00080409040E1F700C000005F98289A2FEF11
:1000F00083ED90E3215080409040E1F700C0000084
:100100002898459A2FEF83ED90E32150804090404E
:10011000E1F700C000004598449A2FEF83ED90E38B
:10012000215080409040E1F700C000004498439A7D
:100130002FEF83ED90E3215080409040E1F700C025
:1001400000004398429A2FEF83ED90E321508040C6
:100150009040E1F700C000004298419A2FEF83EDF4
:1001600090E3215080409040E1F700C000004198AA
:1001700040982A9A2FEF83ED90E3215080409040E1
:10018000E1F700C000005D9A2FEF83ED90E321506E
:1001900080409040E1F700C000005D985E9A2FEF2C
:1001A00083ED90E3215080409040E1F700C00000D3
:1001B0005E985F9A2FEF83ED90E32150804090404E
:1001C000E1F700C000005F98289A2FEF83ED90E3DD
:1001D000215080409040E1F700C000002898459AE7
:1001E0002FEF83ED90E3215080409040E1F700C075
:1001F00000004598449A2FEF83ED90E32150804012
:100200009040E1F700C000004498439A2FEF83ED3F
:1002100090E3215080409040E1F700C000004398F7
:10022000429A2FEF83ED90E3215080409040E1F718
:1002300000C000004298419A2FEF83ED90E32150D7
:1002400080409040E1F700C0000041982A98299A28
:100250002FEF83ED90E3215080409040E1F700C004
:1002600000005D9A2FEF83ED90E321508040904095
:10027000E1F700C000005D985E9A2FEF83ED90E3F8
:10028000215080409040E1F700C000005E985F9AE6
:100290002FEF83ED90E3215080409040E1F700C0C4
:1002A00000005F98289A2FEF83ED90E32150804063
:1002B0009040E1F700C000002898459A2FEF83EDA9
:1002C00090E3215080409040E1F700C00000459845
:1002D000449A2FEF83ED90E3215080409040E1F766
:1002E00000C000004498439A2FEF83ED90E3215023
:1002F00080409040E1F700C000004398429A2FEF01
:1003000083ED90E3215080409040E1F700C0000071
:100310004298419A2FEF83ED90E321508040904026
:10032000E1F700C000004198299880E090E008952E
:100330001F920F920FB60F9211240F900FBE0F90C5
:080340001F901895F894FFCFFF
:00000001FF
